:04000000FEEFFFF020
:1037000000000A6EDEEF1BF0C094C096C39CC39A03
:10371000C398C196C18409EF1CF0C084C096C39CB5
:10372000C38AC388C186C18409EF1CF0C094C096C7
:10373000C38CC39AC398C186C19409EF1CF0C0948E
:10374000C096C39CC39AC388C186C19409EF1CF07C
:10375000C084C096C39CC38AC388C196C19409EF34
:103760001CF0C084C096C39CC38AC388C186C18430
:1037700009EF1CF0C084C086C39CC39AC398C1964D
:10378000C19409EF1CF0C094C096C39CC38AC3883F
:10379000C186C18409EF1CF0C094C096C39CC39A33
:1037A000C398C196C19409EF1CF0C094C096C39C05
:1037B000C38AC388C196C19409EF1CF00A50000A5D
:1037C000D8B484EF1BF0010AD8B48DEF1BF0030AC4
:1037D000D8B496EF1BF0010AD8B49FEF1BF0070A8C
:1037E000D8B4A8EF1BF0010AD8B4B1EF1BF0030A5C
:1037F000D8B4BAEF1BF0010AD8B4C3EF1BF00F0A1C
:10380000D8B4CCEF1BF0010AD8B4D5EF1BF009EF08
:103810001CF01200000EBE6E000EBF6E0C0EC06ECD
:103820000C0EC16E000EC26E700EC36EC668C76805
:10383000F30EC86EF30EC96E070ECA6E830ECB6E02
:10384000040100690869F30E106FF30E186F070E7C
:10385000206F830E286F000E016F000E096F000E9F
:10386000116F000E196F000E216F000E296F000EF0
:10387000026F000E0A6F000E126F000E1A6F000E1C
:10388000226F000E2A6F03690B6913691B69070E0B
:10389000236F2B6904690C6914691C690F0E246F6E
:1038A0002C69000E0201896F000E886F000E876F71
:1038B000000E866F000E0401056F000E066F000EED
:1038C000076F000E0D6F000E0E6F000E0F6F000ED3
:1038D000156F000E166F000E176F000E256F000E8D
:1038E000266F000E276F1200E9EC1CF0C394C396FC
:1038F00086EF1CF0060E81EC1BF0C38491EF1CF0E8
:10390000090E81EC1BF0C38691EF1CF01050000AE9
:10391000D8B47AEF1CF0010AD8B480EF1CF091EF14
:103920001CF0680E0D6EE40EE82EFED70D2EFCD7AF
:1039300000D0102A020E1064A0EF1CF0A2EF1CF0C1
:1039400076EF1CF0000E106E76EF1CF0FEEFFFF02D
:10395000D69AAF90D680000E0A6E000E0B6E000E47
:103960000C6EFEEC1CF0B490D682000E0A6E000EB7
:103970000B6E000E0C6EF7EC1CF0B890D684000EA7
:103980000A6E000E0B6E000E0C6EF0EC1CF01200B6
:10399000600E0001AD6F000EAF6F000EB36F080E2A
:1039A000B16F000EB06F000EAC6F000E0401586FC7
:1039B00012000A0EF66E3A0EF76E000EF86E09004F
:1039C000F5C40EF50900F5C40FF5106A000174EF97
:1039D0001CF0C8EC1CF00AEC1CF0A8EC1CF0120067
:1039E0000AC501F50BC502F50CC503F512000AC5A1
:1039F00004F50BC505F50CC506F512000AC507F55B
:0C3A00000BC508F50CC509F512004500C7
:020000040001F9
:04FFFC00D9EF1CF02D
:020000040030CA
:100000008FEFF7FF9FFFFFFFFFFFFFFFFFFFFFFFE8
:10001000FFFFFFFFFFFFFFFFFFFFFFFFFFFFFFFFF0
:03002000FFFFFFE0
:00000001FF
