:04000000FEEFFFF020
:1037000000000A6EDEEF1BF0C096C09EC092C0980B
:10371000C09AC09CC08409EF1CF0C086C09EC092B5
:10372000C088C08AC08CC08409EF1CF0C096C09EBF
:10373000C082C098C09AC08CC09409EF1CF0C0969B
:10374000C09EC092C098C08AC08CC09409EF1CF083
:10375000C086C09EC092C088C08AC09CC09409EF39
:103760001CF0C086C09EC092C088C08AC08CC08435
:1037700009EF1CF0C086C08EC092C098C09AC09C51
:10378000C09409EF1CF0C096C09EC092C098C08A39
:10379000C08CC08409EF1CF0C096C09EC092C09837
:1037A000C09AC09CC09409EF1CF0C096C09EC09205
:1037B000C088C08AC09CC09409EF1CF00A50000A5F
:1037C000D8B484EF1BF0010AD8B48DEF1BF0030AC4
:1037D000D8B496EF1BF0010AD8B49FEF1BF0070A8C
:1037E000D8B4A8EF1BF0010AD8B4B1EF1BF0030A5C
:1037F000D8B4BAEF1BF0010AD8B4C3EF1BF00F0A1C
:10380000D8B4CCEF1BF0010AD8B4D5EF1BF009EF08
:103810001CF01200000EBE6E000EBF6EC068000EDF
:10382000C16E000EC26E000EC36EC668C768000E81
:10383000C86EC968070ECA6E1F0ECB6E0401006900
:103840000869000E106F1869070E206F1F0E286F91
:10385000000E016F000E096F000E116F000E196F40
:10386000000E216F000E296F000E026F000E0A6F0E
:10387000000E126F000E1A6F000E226F000E2A6FDC
:1038800003690B6913691B69070E236F2B690469B0
:103890000C6914691C690F0E246F2C69000E02015B
:1038A000896F000E886F000E876F000E866F000E06
:1038B0000401056F000E066F000E076F000E0D6FFE
:1038C000000E0E6F000E0F6F000E156F000E166FBC
:1038D000000E176F000E256F000E266F000E276F6B
:1038E0001200F5EC1CF0C39AC39CC39E8AEF1CF037
:1038F000080E81EC1BF0C38A99EF1CF0080E81ECD6
:103900001BF0C38C99EF1CF0080E81EC1BF0C38EEA
:1039100099EF1CF01150000AD8B478EF1CF0010A9E
:10392000D8B47EEF1CF0030AD8B484EF1CF099EFF2
:103930001CF0290E0E6E960E0D6E7F0EE82EFED731
:103940000D2EFCD70E2EFAD70000112A020E11649C
:10395000ACEF1CF0AEEF1CF073EF1CF0000E116E1C
:1039600073EF1CF0FEEFFFF0D69AAF90D680000EFA
:103970000A6E000E0B6E000E0C6E0AEC1DF0B49079
:10398000D682000E0A6E000E0B6E000E0C6E03EC5B
:103990001DF0B890D684000E0A6E000E0B6E000E5D
:1039A0000C6EFCEC1CF01200600E0001AD6F000EFE
:1039B000AF6F000EB36F080EB16F000EB06F000E48
:1039C000AC6F000E0401586F1200220EF66E3A0E14
:1039D000F76E000EF86E0900F5C40FF50900F5C486
:1039E00010F5116A000171EF1CF0D4EC1CF00AEC28
:1039F0001CF0B4EC1CF012000AC501F50BC502F571
:103A00000CC503F512000AC504F50BC505F50CC578
:103A100006F512000AC507F50BC508F50CC509F532
:043A20001200780315
:020000040001F9
:04FFFC00E5EF1CF021
:020000040030CA
:100000008FEFF7FF9FFFFFFFFFFFFFFFFFFFFFFFE8
:10001000FFFFFFFFFFFFFFFFFFFFFFFFFFFFFFFFF0
:03002000FFFFFFE0
:00000001FF
